{
  "contractName": "CertificateStorage",
  "abi": [
    {
      "inputs": [
        {
          "internalType": "string",
          "name": "",
          "type": "string"
        }
      ],
      "name": "certificates",
      "outputs": [
        {
          "internalType": "string",
          "name": "studentName",
          "type": "string"
        },
        {
          "internalType": "string",
          "name": "studentDetails",
          "type": "string"
        },
        {
          "internalType": "string",
          "name": "dateOfBirth",
          "type": "string"
        },
        {
          "internalType": "string",
          "name": "ipfsHash",
          "type": "string"
        },
        {
          "internalType": "address",
          "name": "uploader",
          "type": "address"
        }
      ],
      "stateMutability": "view",
      "type": "function",
      "constant": true
    },
    {
      "inputs": [
        {
          "internalType": "string",
          "name": "_certId",
          "type": "string"
        },
        {
          "internalType": "string",
          "name": "_name",
          "type": "string"
        },
        {
          "internalType": "string",
          "name": "_details",
          "type": "string"
        },
        {
          "internalType": "string",
          "name": "_dob",
          "type": "string"
        },
        {
          "internalType": "string",
          "name": "_ipfsHash",
          "type": "string"
        }
      ],
      "name": "addCertificate",
      "outputs": [],
      "stateMutability": "nonpayable",
      "type": "function"
    },
    {
      "inputs": [
        {
          "internalType": "string",
          "name": "_certId",
          "type": "string"
        }
      ],
      "name": "getCertificate",
      "outputs": [
        {
          "internalType": "string",
          "name": "",
          "type": "string"
        },
        {
          "internalType": "string",
          "name": "",
          "type": "string"
        },
        {
          "internalType": "string",
          "name": "",
          "type": "string"
        },
        {
          "internalType": "string",
          "name": "",
          "type": "string"
        },
        {
          "internalType": "address",
          "name": "",
          "type": "address"
        }
      ],
      "stateMutability": "view",
      "type": "function",
      "constant": true
    }
  ],
  "bytecode": "0x608060405234801561001057600080fd5b50610dfa806100206000396000f3fe608060405234801561001057600080fd5b50600436106100415760003560e01c80631e44f0ea146100465780638f2b91ea14610062578063ed0f2e7514610096575b600080fd5b610060600480360381019061005b9190610979565b6100ca565b005b61007c60048036038101906100779190610938565b610259565b60405161008d959493929190610b78565b60405180910390f35b6100b060048036038101906100ab9190610938565b6104e5565b6040516100c1959493929190610b78565b60405180910390f35b600080866040516100db9190610b61565b908152602001604051809103902060000180546100f790610d23565b905014610139576040517f08c379a000000000000000000000000000000000000000000000000000000000815260040161013090610c07565b60405180910390fd5b6040518060a001604052808581526020018481526020018381526020018281526020013373ffffffffffffffffffffffffffffffffffffffff168152506000866040516101869190610b61565b908152602001604051809103902060008201518160000190805190602001906101b092919061082d565b5060208201518160010190805190602001906101cd92919061082d565b5060408201518160020190805190602001906101ea92919061082d565b50606082015181600301908051906020019061020792919061082d565b5060808201518160040160006101000a81548173ffffffffffffffffffffffffffffffffffffffff021916908373ffffffffffffffffffffffffffffffffffffffff1602179055509050505050505050565b60008180516020810182018051848252602083016020850120818352809550505050505060009150905080600001805461029290610d23565b80601f01602080910402602001604051908101604052809291908181526020018280546102be90610d23565b801561030b5780601f106102e05761010080835404028352916020019161030b565b820191906000526020600020905b8154815290600101906020018083116102ee57829003601f168201915b50505050509080600101805461032090610d23565b80601f016020809104026020016040519081016040528092919081815260200182805461034c90610d23565b80156103995780601f1061036e57610100808354040283529160200191610399565b820191906000526020600020905b81548152906001019060200180831161037c57829003601f168201915b5050505050908060020180546103ae90610d23565b80601f01602080910402602001604051908101604052809291908181526020018280546103da90610d23565b80156104275780601f106103fc57610100808354040283529160200191610427565b820191906000526020600020905b81548152906001019060200180831161040a57829003601f168201915b50505050509080600301805461043c90610d23565b80601f016020809104026020016040519081016040528092919081815260200182805461046890610d23565b80156104b55780601f1061048a576101008083540402835291602001916104b5565b820191906000526020600020905b81548152906001019060200180831161049857829003601f168201915b5050505050908060040160009054906101000a900473ffffffffffffffffffffffffffffffffffffffff16905085565b6060806060806000806000876040516104fe9190610b61565b90815260200160405180910390206040518060a001604052908160008201805461052790610d23565b80601f016020809104026020016040519081016040528092919081815260200182805461055390610d23565b80156105a05780601f10610575576101008083540402835291602001916105a0565b820191906000526020600020905b81548152906001019060200180831161058357829003601f168201915b505050505081526020016001820180546105b990610d23565b80601f01602080910402602001604051908101604052809291908181526020018280546105e590610d23565b80156106325780601f1061060757610100808354040283529160200191610632565b820191906000526020600020905b81548152906001019060200180831161061557829003601f168201915b5050505050815260200160028201805461064b90610d23565b80601f016020809104026020016040519081016040528092919081815260200182805461067790610d23565b80156106c45780601f10610699576101008083540402835291602001916106c4565b820191906000526020600020905b8154815290600101906020018083116106a757829003601f168201915b505050505081526020016003820180546106dd90610d23565b80601f016020809104026020016040519081016040528092919081815260200182805461070990610d23565b80156107565780601f1061072b57610100808354040283529160200191610756565b820191906000526020600020905b81548152906001019060200180831161073957829003601f168201915b505050505081526020016004820160009054906101000a900473ffffffffffffffffffffffffffffffffffffffff1673ffffffffffffffffffffffffffffffffffffffff1673ffffffffffffffffffffffffffffffffffffffff1681525050905060008160000151511415610800576040517f08c379a00000000000000000000000000000000000000000000000000000000081526004016107f790610be7565b60405180910390fd5b80600001518160200151826040015183606001518460800151955095509550955095505091939590929450565b82805461083990610d23565b90600052602060002090601f01602090048101928261085b57600085556108a2565b82601f1061087457805160ff19168380011785556108a2565b828001600101855582156108a2579182015b828111156108a1578251825591602001919060010190610886565b5b5090506108af91906108b3565b5090565b5b808211156108cc5760008160009055506001016108b4565b5090565b60006108e36108de84610c58565b610c27565b9050828152602081018484840111156108fb57600080fd5b610906848285610ce1565b509392505050565b600082601f83011261091f57600080fd5b813561092f8482602086016108d0565b91505092915050565b60006020828403121561094a57600080fd5b600082013567ffffffffffffffff81111561096457600080fd5b6109708482850161090e565b91505092915050565b600080600080600060a0868803121561099157600080fd5b600086013567ffffffffffffffff8111156109ab57600080fd5b6109b78882890161090e565b955050602086013567ffffffffffffffff8111156109d457600080fd5b6109e08882890161090e565b945050604086013567ffffffffffffffff8111156109fd57600080fd5b610a098882890161090e565b935050606086013567ffffffffffffffff811115610a2657600080fd5b610a328882890161090e565b925050608086013567ffffffffffffffff811115610a4f57600080fd5b610a5b8882890161090e565b9150509295509295909350565b610a7181610caf565b82525050565b6000610a8282610c88565b610a8c8185610c93565b9350610a9c818560208601610cf0565b610aa581610db3565b840191505092915050565b6000610abb82610c88565b610ac58185610ca4565b9350610ad5818560208601610cf0565b80840191505092915050565b6000610aee601583610c93565b91507f4365727469666963617465206e6f7420666f756e6400000000000000000000006000830152602082019050919050565b6000610b2e601a83610c93565b91507f436572746966696361746520616c7265616479206578697374730000000000006000830152602082019050919050565b6000610b6d8284610ab0565b915081905092915050565b600060a0820190508181036000830152610b928188610a77565b90508181036020830152610ba68187610a77565b90508181036040830152610bba8186610a77565b90508181036060830152610bce8185610a77565b9050610bdd6080830184610a68565b9695505050505050565b60006020820190508181036000830152610c0081610ae1565b9050919050565b60006020820190508181036000830152610c2081610b21565b9050919050565b6000604051905081810181811067ffffffffffffffff82111715610c4e57610c4d610d84565b5b8060405250919050565b600067ffffffffffffffff821115610c7357610c72610d84565b5b601f19601f8301169050602081019050919050565b600081519050919050565b600082825260208201905092915050565b600081905092915050565b6000610cba82610cc1565b9050919050565b600073ffffffffffffffffffffffffffffffffffffffff82169050919050565b82818337600083830152505050565b60005b83811015610d0e578082015181840152602081019050610cf3565b83811115610d1d576000848401525b50505050565b60006002820490506001821680610d3b57607f821691505b60208210811415610d4f57610d4e610d55565b5b50919050565b7f4e487b7100000000000000000000000000000000000000000000000000000000600052602260045260246000fd5b7f4e487b7100000000000000000000000000000000000000000000000000000000600052604160045260246000fd5b6000601f19601f830116905091905056fea2646970667358221220129fbcf1ae24c5fb5546fd1c1f0afe78b52214d96727b34aa2874e456fd6579264736f6c63430008000033",
  "immutableReferences": {},
  "source": "// SPDX-License-Identifier: MIT\r\npragma solidity ^0.8.0;\r\n\r\ncontract CertificateStorage {\r\n    struct Certificate {\r\n        string studentName;\r\n        string studentDetails;\r\n        string dateOfBirth;\r\n        string ipfsHash;\r\n        address uploader;\r\n    }\r\n\r\n    mapping(string => Certificate) public certificates;\r\n\r\n    function addCertificate(\r\n        string memory _certId,\r\n        string memory _name,\r\n        string memory _details,\r\n        string memory _dob,\r\n        string memory _ipfsHash\r\n    ) public {\r\n        require(bytes(certificates[_certId].studentName).length == 0, \"Certificate already exists\");\r\n        certificates[_certId] = Certificate(_name, _details, _dob, _ipfsHash, msg.sender);\r\n    }\r\n\r\n    function getCertificate(string memory _certId) public view returns (\r\n        string memory,\r\n        string memory,\r\n        string memory,\r\n        string memory,\r\n        address\r\n    ) {\r\n        Certificate memory cert = certificates[_certId];\r\n        require(bytes(cert.studentName).length != 0, \"Certificate not found\");\r\n        return (cert.studentName, cert.studentDetails, cert.dateOfBirth, cert.ipfsHash, cert.uploader);\r\n    }\r\n}\r\n",
  "sourcePath": "C:\\Users\\samee\\OneDrive\\Desktop\\BLOCKCHAIN\\contracts\\Certificate.sol",
  "compiler": {
    "name": "solc",
    "version": "0.8.0+commit.c7dfd78e.Emscripten.clang"
  },
  "schemaVersion": "3.4.16",
  "updatedAt": "2025-08-27T10:37:20.488Z",
  "networkType": "ethereum",
  "devdoc": {
    "kind": "dev",
    "methods": {},
    "version": 1
  },
  "userdoc": {
    "kind": "user",
    "methods": {},
    "version": 1
  }
}