{
  "contractName": "CertificateStorage",
  "abi": [
    {
      "inputs": [
        {
          "internalType": "string",
          "name": "",
          "type": "string"
        }
      ],
      "name": "certificates",
      "outputs": [
        {
          "internalType": "string",
          "name": "studentName",
          "type": "string"
        },
        {
          "internalType": "string",
          "name": "studentDetails",
          "type": "string"
        },
        {
          "internalType": "string",
          "name": "dateOfBirth",
          "type": "string"
        },
        {
          "internalType": "string",
          "name": "ipfsHash",
          "type": "string"
        },
        {
          "internalType": "address",
          "name": "uploader",
          "type": "address"
        }
      ],
      "stateMutability": "view",
      "type": "function",
      "constant": true
    },
    {
      "inputs": [
        {
          "internalType": "string",
          "name": "_certId",
          "type": "string"
        },
        {
          "internalType": "string",
          "name": "_name",
          "type": "string"
        },
        {
          "internalType": "string",
          "name": "_details",
          "type": "string"
        },
        {
          "internalType": "string",
          "name": "_dob",
          "type": "string"
        },
        {
          "internalType": "string",
          "name": "_ipfsHash",
          "type": "string"
        }
      ],
      "name": "addCertificate",
      "outputs": [],
      "stateMutability": "nonpayable",
      "type": "function"
    },
    {
      "inputs": [
        {
          "internalType": "string",
          "name": "_certId",
          "type": "string"
        }
      ],
      "name": "getCertificate",
      "outputs": [
        {
          "internalType": "string",
          "name": "",
          "type": "string"
        },
        {
          "internalType": "string",
          "name": "",
          "type": "string"
        },
        {
          "internalType": "string",
          "name": "",
          "type": "string"
        },
        {
          "internalType": "string",
          "name": "",
          "type": "string"
        },
        {
          "internalType": "address",
          "name": "",
          "type": "address"
        }
      ],
      "stateMutability": "view",
      "type": "function",
      "constant": true
    }
  ],
  "bytecode": "0x608060405234801561001057600080fd5b50610c88806100206000396000f3fe608060405234801561001057600080fd5b50600436106100415760003560e01c80631e44f0ea146100465780638f2b91ea14610062578063ed0f2e7514610096575b600080fd5b610060600480360381019061005b91906108c7565b6100ca565b005b61007c60048036038101906100779190610886565b6101f0565b60405161008d959493929190610a46565b60405180910390f35b6100b060048036038101906100ab9190610886565b61047c565b6040516100c1959493929190610a46565b60405180910390f35b60006040518060a001604052808681526020018581526020018481526020018381526020013373ffffffffffffffffffffffffffffffffffffffff1681525090508060008760405161011c9190610a2f565b9081526020016040518091039020600082015181600001908051906020019061014692919061077b565b50602082015181600101908051906020019061016392919061077b565b50604082015181600201908051906020019061018092919061077b565b50606082015181600301908051906020019061019d92919061077b565b5060808201518160040160006101000a81548173ffffffffffffffffffffffffffffffffffffffff021916908373ffffffffffffffffffffffffffffffffffffffff160217905550905050505050505050565b60008180516020810182018051848252602083016020850120818352809550505050505060009150905080600001805461022990610bb1565b80601f016020809104026020016040519081016040528092919081815260200182805461025590610bb1565b80156102a25780601f10610277576101008083540402835291602001916102a2565b820191906000526020600020905b81548152906001019060200180831161028557829003601f168201915b5050505050908060010180546102b790610bb1565b80601f01602080910402602001604051908101604052809291908181526020018280546102e390610bb1565b80156103305780601f1061030557610100808354040283529160200191610330565b820191906000526020600020905b81548152906001019060200180831161031357829003601f168201915b50505050509080600201805461034590610bb1565b80601f016020809104026020016040519081016040528092919081815260200182805461037190610bb1565b80156103be5780601f10610393576101008083540402835291602001916103be565b820191906000526020600020905b8154815290600101906020018083116103a157829003601f168201915b5050505050908060030180546103d390610bb1565b80601f01602080910402602001604051908101604052809291908181526020018280546103ff90610bb1565b801561044c5780601f106104215761010080835404028352916020019161044c565b820191906000526020600020905b81548152906001019060200180831161042f57829003601f168201915b5050505050908060040160009054906101000a900473ffffffffffffffffffffffffffffffffffffffff16905085565b6060806060806000806000876040516104959190610a2f565b90815260200160405180910390206040518060a00160405290816000820180546104be90610bb1565b80601f01602080910402602001604051908101604052809291908181526020018280546104ea90610bb1565b80156105375780601f1061050c57610100808354040283529160200191610537565b820191906000526020600020905b81548152906001019060200180831161051a57829003601f168201915b5050505050815260200160018201805461055090610bb1565b80601f016020809104026020016040519081016040528092919081815260200182805461057c90610bb1565b80156105c95780601f1061059e576101008083540402835291602001916105c9565b820191906000526020600020905b8154815290600101906020018083116105ac57829003601f168201915b505050505081526020016002820180546105e290610bb1565b80601f016020809104026020016040519081016040528092919081815260200182805461060e90610bb1565b801561065b5780601f106106305761010080835404028352916020019161065b565b820191906000526020600020905b81548152906001019060200180831161063e57829003601f168201915b5050505050815260200160038201805461067490610bb1565b80601f01602080910402602001604051908101604052809291908181526020018280546106a090610bb1565b80156106ed5780601f106106c2576101008083540402835291602001916106ed565b820191906000526020600020905b8154815290600101906020018083116106d057829003601f168201915b505050505081526020016004820160009054906101000a900473ffffffffffffffffffffffffffffffffffffffff1673ffffffffffffffffffffffffffffffffffffffff1673ffffffffffffffffffffffffffffffffffffffff1681525050905080600001518160200151826040015183606001518460800151955095509550955095505091939590929450565b82805461078790610bb1565b90600052602060002090601f0160209004810192826107a957600085556107f0565b82601f106107c257805160ff19168380011785556107f0565b828001600101855582156107f0579182015b828111156107ef5782518255916020019190600101906107d4565b5b5090506107fd9190610801565b5090565b5b8082111561081a576000816000905550600101610802565b5090565b600061083161082c84610ae6565b610ab5565b90508281526020810184848401111561084957600080fd5b610854848285610b6f565b509392505050565b600082601f83011261086d57600080fd5b813561087d84826020860161081e565b91505092915050565b60006020828403121561089857600080fd5b600082013567ffffffffffffffff8111156108b257600080fd5b6108be8482850161085c565b91505092915050565b600080600080600060a086880312156108df57600080fd5b600086013567ffffffffffffffff8111156108f957600080fd5b6109058882890161085c565b955050602086013567ffffffffffffffff81111561092257600080fd5b61092e8882890161085c565b945050604086013567ffffffffffffffff81111561094b57600080fd5b6109578882890161085c565b935050606086013567ffffffffffffffff81111561097457600080fd5b6109808882890161085c565b925050608086013567ffffffffffffffff81111561099d57600080fd5b6109a98882890161085c565b9150509295509295909350565b6109bf81610b3d565b82525050565b60006109d082610b16565b6109da8185610b21565b93506109ea818560208601610b7e565b6109f381610c41565b840191505092915050565b6000610a0982610b16565b610a138185610b32565b9350610a23818560208601610b7e565b80840191505092915050565b6000610a3b82846109fe565b915081905092915050565b600060a0820190508181036000830152610a6081886109c5565b90508181036020830152610a7481876109c5565b90508181036040830152610a8881866109c5565b90508181036060830152610a9c81856109c5565b9050610aab60808301846109b6565b9695505050505050565b6000604051905081810181811067ffffffffffffffff82111715610adc57610adb610c12565b5b8060405250919050565b600067ffffffffffffffff821115610b0157610b00610c12565b5b601f19601f8301169050602081019050919050565b600081519050919050565b600082825260208201905092915050565b600081905092915050565b6000610b4882610b4f565b9050919050565b600073ffffffffffffffffffffffffffffffffffffffff82169050919050565b82818337600083830152505050565b60005b83811015610b9c578082015181840152602081019050610b81565b83811115610bab576000848401525b50505050565b60006002820490506001821680610bc957607f821691505b60208210811415610bdd57610bdc610be3565b5b50919050565b7f4e487b7100000000000000000000000000000000000000000000000000000000600052602260045260246000fd5b7f4e487b7100000000000000000000000000000000000000000000000000000000600052604160045260246000fd5b6000601f19601f830116905091905056fea2646970667358221220ab8eed1e712dc4e1bc61f4846fd01aeb6b56e958fa722bca3fe88dab4ef0fb2064736f6c63430008000033",
  "immutableReferences": {},
  "source": "// SPDX-License-Identifier: MIT\r\npragma solidity ^0.8.0;\r\n\r\ncontract CertificateStorage {\r\n\r\n    struct Certificate {\r\n        string studentName;\r\n        string studentDetails;\r\n        string dateOfBirth;\r\n        string ipfsHash;\r\n        address uploader;\r\n    }\r\n\r\n    // Mapping from Certificate ID => Certificate details\r\n    mapping(string => Certificate) public certificates;\r\n\r\n    /// @notice Add a new certificate\r\n    /// @param _certId Unique certificate ID\r\n    /// @param _name Student name\r\n    /// @param _details Student details (course, dept, etc.)\r\n    /// @param _dob Student date of birth\r\n    /// @param _ipfsHash IPFS hash of uploaded certificate file\r\n    function addCertificate(\r\n        string memory _certId,\r\n        string memory _name,\r\n        string memory _details,\r\n        string memory _dob,\r\n        string memory _ipfsHash\r\n    ) public {\r\n        Certificate memory cert = Certificate({\r\n            studentName: _name,\r\n            studentDetails: _details,\r\n            dateOfBirth: _dob,\r\n            ipfsHash: _ipfsHash,\r\n            uploader: msg.sender\r\n        });\r\n\r\n        certificates[_certId] = cert;\r\n    }\r\n\r\n    /// @notice Retrieve a certificate by ID\r\n    /// @param _certId Certificate ID\r\n    /// @return name, details, dob, ipfsHash, uploader\r\n    function getCertificate(string memory _certId)\r\n        public\r\n        view\r\n        returns (\r\n            string memory,\r\n            string memory,\r\n            string memory,\r\n            string memory,\r\n            address\r\n        )\r\n    {\r\n        Certificate memory cert = certificates[_certId];\r\n        return (\r\n            cert.studentName,\r\n            cert.studentDetails,\r\n            cert.dateOfBirth,\r\n            cert.ipfsHash,\r\n            cert.uploader\r\n        );\r\n    }\r\n}\r\n",
  "sourcePath": "C:\\Users\\samee\\OneDrive\\Desktop\\BLOCKCHAIN\\contracts\\Certificate.sol",
  "compiler": {
    "name": "solc",
    "version": "0.8.0+commit.c7dfd78e.Emscripten.clang"
  },
  "schemaVersion": "3.4.16",
  "updatedAt": "2025-09-13T13:45:33.704Z",
  "networkType": "ethereum",
  "devdoc": {
    "kind": "dev",
    "methods": {
      "addCertificate(string,string,string,string,string)": {
        "params": {
          "_certId": "Unique certificate ID",
          "_details": "Student details (course, dept, etc.)",
          "_dob": "Student date of birth",
          "_ipfsHash": "IPFS hash of uploaded certificate file",
          "_name": "Student name"
        }
      },
      "getCertificate(string)": {
        "params": {
          "_certId": "Certificate ID"
        },
        "returns": {
          "_0": "name, details, dob, ipfsHash, uploader"
        }
      }
    },
    "version": 1
  },
  "userdoc": {
    "kind": "user",
    "methods": {
      "addCertificate(string,string,string,string,string)": {
        "notice": "Add a new certificate"
      },
      "getCertificate(string)": {
        "notice": "Retrieve a certificate by ID"
      }
    },
    "version": 1
  }
}